:020000040800F2
:1000000000000220C91A0008E9180008EF180008CB
:10001000F5180008FB18000801190008000000008E
:1000200000000000000000000000000007190008A8
:1000300015190008000000002319000831190008F4
:10004000191B0008191B0008191B0008191B0008C0
:10005000191B0008191B0008191B0008191B0008B0
:10006000191B0008191B0008191B0008191B0008A0
:10007000191B0008191B0008191B0008191B000890
:10008000191B0008191B0008191B000800000000BC
:10009000000000000000000000000000191B000824
:1000A000191B0008191B0008191B0008191B000860
:1000B000191B0008191B0008191B0008191B000850
:1000C000191B0008191B0008191B0008191B000840
:1000D000191B0008191B00083D190008000000004A
:1000E000191B0008191B0008191B0008000000005C
:1000F000000000000000000000000000191B0008C4
:1001000000000000191B0008191B0008191B00083B
:1001100000000000000000000000000000000000DF
:10012000191B0008191B0008191B0008191B0008DF
:10013000191B000800000000000000000000000083
:10014000000000000000000000000000191B000873
:10015000191B0008191B0008191B0008191B0008AF
:10016000191B0008191B0008000000000000000017
:10017000000000000000000000000000000000007F
:1001800000000000191B0008000000000000000033
:08019000191B0008191B0008EF
:1001A00010B5054C237833B9044B13B10448AFF3B1
:1001B00000800123237010BDDC010020000000003E
:1001C000F063000808B5034B1BB103490348AFF3C4
:1001D000008008BD00000000E0010020F06300087E
:1001E000034613F8012B002AFBD1181A0138704777
:1001F00001F0FF01102A2BDB10F0070F08D010F8D8
:10020000013B013A8B422DD010F0070F42B3F6D1DB
:10021000F0B441EA012141EA014122F007047FF0F4
:1002200000070023F0E80256083C85EA010586EA4B
:10023000010685FA47F5A3FA87F586FA47F6A5FA87
:1002400087F68EB9EED1F0BC01F0FF0102F0070293
:1002500032B110F8013B013A83EA010313B1F8D13E
:100260000020704701387047002D06BF354603381F
:10027000073815F0010F07D1013015F4807F02BF58
:10028000013015F4C03F0130F0BC0138704700BFA9
:1002900081F0004102E000BF83F0004330B54FEA37
:1002A00041044FEA430594EA050F08BF90EA020FA4
:1002B0001FBF54EA000C55EA020C7FEA645C7FEA37
:1002C000655C00F0E2804FEA5454D4EB5555B8BF5A
:1002D0006D420CDD2C4480EA020281EA030382EACB
:1002E000000083EA010180EA020281EA0303362D5D
:1002F00088BF30BD11F0004F4FEA01314FF4801C30
:100300004CEA113102D0404261EB410113F0004F41
:100310004FEA03334CEA133302D0524263EB4303F8
:1003200094EA050F00F0A780A4F10104D5F1200E96
:100330000DDB02FA0EFC22FA05F2801841F10001F1
:1003400003FA0EF2801843FA05F359410EE0A5F1C5
:1003500020050EF1200E012A03FA0EFC28BF4CF0F6
:10036000020C43FA05F3C01851EBE37101F00045AC
:1003700007D54FF0000EDCF1000C7EEB00006EEBB9
:100380000101B1F5801F1BD3B1F5001F0CD3490843
:100390005FEA30004FEA3C0C04F101044FEA44529A
:1003A00012F5800F80F09A80BCF1004F08BF5FEA21
:1003B000500C50F1000041EB045141EA050130BD01
:1003C0005FEA4C0C404141EB0101013C28BFB1F513
:1003D000801FE9D291F0000F04BF01460020B1FA5E
:1003E00081F308BF2033A3F10B03B3F120020CDA31
:1003F0000C3208DD02F1140CC2F10C0201FA0CF00F
:1004000021FA02F10CE002F11402D8BFC2F1200C73
:1004100001FA02F120FA0CFCDCBF41EA0C01904029
:10042000E41AA2BF01EB0451294330BD6FEA040472
:100430001F3C1CDA0C340EDC04F11404C4F120025D
:1004400020FA04F001FA02F340EA030021FA04F36F
:1004500045EA030130BDC4F10C04C4F1200220FAC6
:1004600002F001FA04F340EA0300294630BD21FA04
:1004700004F0294630BD94F0000F83F4801306BFCA
:1004800081F480110134013D4EE77FEA645C18BFBE
:100490007FEA655C29D094EA050F08BF90EA020F55
:1004A00005D054EA000C04BF1946104630BD91EA4D
:1004B000030F1EBF0021002030BD5FEA545C05D150
:1004C0004000494128BF41F0004130BD14F580048F
:1004D0003CBF01F5801130BD01F0004545F0FE4103
:1004E00041F470014FF0000030BD7FEA645C1ABF38
:1004F000194610467FEA655C1CBF0B46024650EA6F
:10050000013406BF52EA033591EA030F41F400219A
:1005100030BD00BF90F0000F04BF0021704730B520
:100520004FF4806404F132044FF000054FF00001F5
:1005300050E700BF90F0000F04BF0021704730B5B6
:100540004FF4806404F1320410F0004548BF40428B
:100550004FF000013EE700BF42004FEAE2014FEAE0
:1005600031014FEA02701FBF12F07F4393F07F4FBB
:1005700081F06051704732F07F4208BF704793F0BE
:100580007F4F04BF41F40021704730B54FF46074D1
:1005900001F0004521F000411CE700BF50EA0102D4
:1005A00008BF704730B54FF000050AE050EA01027D
:1005B00008BF704730B511F0004502D5404261EBED
:1005C00041014FF4806404F132045FEA915C3FF42E
:1005D000D8AE4FF003025FEADC0C18BF03325FEACB
:1005E000DC0C18BF033202EBDC02C2F1200300FA7C
:1005F00003FC20FA02F001FA03FE40EA0E0021FAA1
:1006000002F11444BDE600BF70B54FF0FF0C4CF48E
:10061000E06C1CEA11541DBF1CEA135594EA0C0F40
:1006200095EA0C0F00F0DEF82C4481EA030621EA7B
:100630004C5123EA4C5350EA013518BF52EA0335B6
:1006400041F4801143F4801338D0A0FB02CE4FF068
:100650000005E1FB02E506F00042E0FB03E54FF098
:100660000006E1FB03569CF0000F18BF4EF0010E90
:10067000A4F1FF04B6F5007F64F5407404D25FEA8C
:100680004E0E6D4146EB060642EAC62141EA55513F
:100690004FEAC52040EA5E504FEACE2EB4F1FD0C81
:1006A00088BFBCF5E06F1ED8BEF1004F08BF5FEAFF
:1006B000500E50F1000041EB045170BD06F00046B1
:1006C00046EA010140EA020081EA0301B4EB5C045E
:1006D000C2BFD4EB0C0541EA045170BD41F4801156
:1006E0004FF0000E013C00F3AB8014F1360FDEBF7B
:1006F000002001F0004170BDC4F10004203C35DA57
:100700000C341BDC04F11404C4F1200500FA05F3D9
:1007100020FA04F001FA05F240EA020001F000427A
:1007200021F0004110EBD37021FA04F642EB0601F0
:100730005EEA430E08BF20EAD37070BDC4F10C041A
:10074000C4F1200500FA04F320FA05F001FA04F2DE
:1007500040EA020001F0004110EBD37041F10001CA
:100760005EEA430E08BF20EAD37070BDC4F12005D5
:1007700000FA05F24EEA020E20FA04F301FA05F23D
:1007800043EA020321FA04F001F0004121FA04F2E5
:1007900020EA020000EBD3705EEA430E08BF20EAB5
:1007A000D37070BD94F0000F0FD101F000464000EF
:1007B00041EB010111F4801F08BF013CF7D041EA71
:1007C000060195F0000F18BF704703F00046520075
:1007D00043EB030313F4801F08BF013DF7D043EA46
:1007E0000603704794EA0C0F0CEA135518BF95EAFC
:1007F0000C0F0CD050EA410618BF52EA4306D1D183
:1008000081EA030101F000414FF0000070BD50EAA1
:10081000410606BF1046194652EA430619D094EA2B
:100820000C0F02D150EA013613D195EA0C0F05D115
:1008300052EA03361CBF104619460AD181EA030169
:1008400001F0004141F0FE4141F470014FF0000021
:1008500070BD41F0FE4141F4780170BD70B54FF0BC
:10086000FF0C4CF4E06C1CEA11541DBF1CEA13553C
:1008700094EA0C0F95EA0C0F00F0A7F8A4EB05041E
:1008800081EA030E52EA03354FEA013100F0888015
:100890004FEA03334FF0805545EA131343EA1263DE
:1008A0004FEA022245EA111545EA10654FEA002693
:1008B0000EF000419D4208BF964244F1FD0404F54C
:1008C000407402D25B084FEA3202B61A65EB0305A8
:1008D0005B084FEA32024FF480104FF4002CB6EB65
:1008E000020E75EB030E22BFB61A754640EA0C00E5
:1008F0005B084FEA3202B6EB020E75EB030E22BF25
:10090000B61A754640EA5C005B084FEA3202B6EB65
:10091000020E75EB030E22BFB61A754640EA9C0024
:100920005B084FEA3202B6EB020E75EB030E22BFF4
:10093000B61A754640EADC0055EA060E18D04FEAB2
:10094000051545EA16754FEA06164FEAC30343EA52
:1009500052734FEAC2025FEA1C1CC0D111F4801F1F
:100960000BD141EA00014FF000004FF0004CB6E718
:1009700011F4801F04BF01430020B4F1FD0C88BFB7
:10098000BCF5E06F3FF6AFAEB5EB030C04BFB6EBC2
:10099000020C5FEA500C50F1000041EB045170BDB5
:1009A0000EF0004E4EEA113114EB5C04C2BFD4EBE2
:1009B0000C0541EA045170BD41F480114FF0000E66
:1009C000013C90E645EA060E8DE60CEA135594EAE2
:1009D0000C0F08BF95EA0C0F3FF43BAF94EA0C0FE5
:1009E0000AD150EA01347FF434AF95EA0C0F7FF45A
:1009F00025AF104619462CE795EA0C0F06D152EAAE
:100A000003353FF4FDAE1046194622E750EA410691
:100A100018BF52EA43067FF4C5AE50EA41047FF4A2
:100A20000DAF52EA43057FF4EBAE12E74FF0FF3C07
:100A300006E000BF4FF0010C02E000BF4FF0010CD8
:100A40004DF804CD4FEA410C7FEA6C5C4FEA430C51
:100A500018BF7FEA6C5C1BD001B050EA410C0CBFA0
:100A600052EA430C91EA030F02BF90EA020F002002
:100A7000704710F1000F91EA030F58BF994208BF69
:100A800090422CBFD8176FEAE37040F00100704726
:100A90004FEA410C7FEA6C5C02D150EA013C07D17D
:100AA0004FEA430C7FEA6C5CD6D152EA033CD3D0C8
:100AB0005DF8040B704700BF8446104662468C46C2
:100AC0001946634600E000BF01B5FFF7B7FF0028F5
:100AD00048BF10F1000F01BD4DF808EDFFF7F4FF1E
:100AE0000CBF012000205DF808FB00BF4DF808EDA9
:100AF000FFF7EAFF34BF012000205DF808FB00BFCC
:100B00004DF808EDFFF7E0FF94BF012000205DF8ED
:100B100008FB00BF4DF808EDFFF7CEFF94BF0120A2
:100B200000205DF808FB00BF4DF808EDFFF7C4FF9B
:100B300034BF012000205DF808FB00BF4FEA410CE4
:100B40007FEA6C5C02D150EA013C0AD14FEA430CC7
:100B50007FEA6C5C02D152EA033C02D14FF0000004
:100B600070474FF0010070474FEA410212F5001242
:100B700015D211D56FF47873B3EB625212D94FEAE4
:100B8000C12343F0004343EA505311F0004F23FACE
:100B900002F018BF404270474FF00000704750EA23
:100BA000013005D111F0004008BF6FF000407047E0
:100BB0004FF00000704700BF53B94AB9002908BF81
:100BC00000281CBF4FF0FF314FF0FF3000F06EB92E
:100BD000ADF1080C6DE904CE00F006F8DDF804E094
:100BE000DDE9022304B070472DE9F047089D044673
:100BF0008C46002B40F083808A42174647D9B2FAD0
:100C000082F242B1C2F1200024FA00F091409740F4
:100C100040EA010C94404FEA1748230CBCFBF8F65D
:100C20001FFA87FE08FB16C143EA014306FB0EF1DB
:100C3000994209D9FB1806F1FF3080F019819942D9
:100C400040F21681023E3B445B1AA4B2B3FBF8F0BB
:100C500008FB103344EA034400FB0EFEA64509D905
:100C60003C1900F1FF3380F00581A64540F2028176
:100C700002383C4440EA0640A4EB0E0400261DB1B5
:100C8000D4400023C5E900433146BDE8F08702B9EE
:100C9000FFDEB2FA82F2002A50D1CB1B4FEA174E88
:100CA0001FFA87F80126B3FBFEFC210C0EFB1C3358
:100CB00041EA034108FB0CF38B4207D979180CF188
:100CC000FF3002D28B4200F2E9808446C91AA3B2F7
:100CD000B1FBFEF00EFB101143EA014408FB00F8E3
:100CE000A04507D93C1900F1FF3302D2A04500F21C
:100CF000D9801846A4EB080440EA0C40BFE78B42B9
:100D000009D9002D00F0B1800026C5E90001304668
:100D10003146BDE8F087B3FA83F6002E4AD18B4204
:100D200002D3824200F2B880841A61EB03010120F1
:100D30008C46002DA8D0C5E9004CA5E7C2F12003E0
:100D400020FA03F6974001FA02F04FEA174ED94015
:100D50003043030CB1FBFEF61FFA87F80EFB1611A9
:100D600043EA014306FB08F1994204FA02F409D967
:100D7000FB1806F1FF3C80F08D80994240F28A809A
:100D8000023E3B445B1A81B2B3FBFEF00EFB103314
:100D900041EA034100FB08F38B4207D9791800F1BF
:100DA000FF3C73D28B4271D902383944CB1A40EAE6
:100DB000064678E7C6F1200C03FA06F422FA0CF393
:100DC0001C4320FA0CF701FA06F34FEA144E21FAFD
:100DD0000CF11F433B0CB1FBFEF91FFA84F80EFB2C
:100DE000191143EA014109FB08FA8A4502FA06F2A1
:100DF00000FA06F308D9611809F1FF3048D28A4594
:100E000046D9A9F102092144A1EB0A01BFB2B1FB05
:100E1000FEF00EFB101147EA014700FB08F8B84549
:100E200007D9E71900F1FF312ED2B8452CD9023885
:100E3000274440EA0940A7EB0807A0FB02894F4579
:100E4000C64649461AD317D05DB1B3EB0E0267EB25
:100E5000010707FA0CFCF2404CEA0202F740C5E930
:100E6000002700263146BDE8F0872E4628460BE7CE
:100E70000646E9E61846FDE64345E5D2B8EB020E24
:100E800069EB04010138DFE70846D2E760468DE7E9
:100E90008146B9E7664675E730464AE7ACF1020C91
:100EA000394413E702383C4424E700BF704700BFD1
:100EB00080B582B000AF78607B68002B05D1194BFC
:100EC000194A2621194802F003FD7B681B7C002B80
:100ED0000BD07B689B6801337A68D268B3FBF2F170
:100EE00002FB01F29A1A7B689A607B685B680133A7
:100EF0007A68D268B3FBF2F102FB01F29A1A7B68BE
:100F00005A607B685A687B689B689A420CBF0123D1
:100F10000023DBB21A467B681A7400BF0837BD464F
:100F200080BD00BF086400087066000810640008F7
:100F300080B582B000AF78607B68002B05D10C4B88
:100F40000C4A39210C4802F0C3FC7B6800221A7459
:100F50007B689B6801337A68D268B3FBF2F102FBCD
:100F600001F29A1A7B689A6000BF0837BD4680BDBF
:100F700008640008846600081064000880B582B028
:100F800000AF78607B68002B05D10C4B0C4A4E21DA
:100F90000C4802F09DFC7B681B7C002B07D17B6812
:100FA0009A687B685B689A4201D1012300E00023C4
:100FB000DBB218460837BD4680BD00BF0864000894
:100FC000986600081064000880B584B000AF7860AF
:100FD00039607B68002B02D03B68002B05D1174B92
:100FE000174A6921174802F073FC142002F0CAFC6A
:100FF0000346FB60FB68002B05D1134B104A6C21A4
:10100000104802F065FCFB687A681A60FB683A6871
:10101000DA60F86800F01CF8F868FFF7AFFF0346E5
:10102000002B05D1094B064A7221064802F050FCFC
:10103000FB6818461037BD4680BD00BF3464000809
:10104000AC660008106400080864000844640008E6
:1010500080B582B000AF78607B68002B05D1094B6A
:10106000094A8921094802F033FC7B6800225A6052
:101070007B6800229A607B6800221A7400BF0837E0
:10108000BD4680BD08640008C06600081064000802
:1010900080B584B000AF78607B68002B05D1144B1D
:1010A000144A9721144802F013FC7B68DB68FB604C
:1010B0007B681B7C002B15D17B685A687B689B681A
:1010C0009A4206D37B685A687B689B68D31AFB6098
:1010D00008E07B68DA687B685B681A447B689B6819
:1010E000D31AFB60FB6818461037BD4680BD00BFB1
:1010F00008640008D46600081064000890B583B046
:1011000000AF78607B68002B05D1084B084ABE21F0
:10111000084802F0DDFB7B68DC687868FFF7B8FF01
:101120000346E31A18460C37BD4690BD0864000814
:10113000F06600081064000880B582B000AF7860E7
:101140000B46FB707B68002B03D07B681B68002B71
:1011500005D10A4B0A4ACA210A4802F0B9FB7B684A
:101160001A687B685B681344FA781A707868FFF72E
:101170009FFE00BF0837BD4680BD00BF6064000809
:10118000106700081064000880B584B000AF786074
:1011900039607B68002B06D03B68002B03D07B684E
:1011A0001B68002B05D1104B104ADA21104802F0C1
:1011B0008FFB0023FB607868FFF7E0FE0346002BFF
:1011C0000CD17B681A687B689B6813441A783B686B
:1011D0001A707868FFF7ACFE0123FB60FB68DBB296
:1011E00018461037BD4680BD7C640008246700089F
:1011F0001064000880B586B000AFF860B96013468F
:10120000FB71FB68002B03D0FB681B68002B05D12A
:10121000154B164AF321164802F05AFBFB681B7C5B
:10122000002B01D001231AE0F868FFF767FF0246A0
:10123000FB799A4201D2022311E000237B6109E08D
:101240007B695A1C7A61BA6813441B781946F8689E
:10125000FFF772FFFB797A699A42F1D300231846AF
:101260001837BD4680BD00BF6064000838670008BD
:101270001064000880B586B000AFF860B9607A608D
:10128000FB68002B06D0FB681B68002B02D0BB68F4
:10129000002B06D1104B114A40F21511104802F0F4
:1012A00017FB00237B610DE07B695A1C7A61BA68E9
:1012B00013441946F868FFF767FF0346002B01D176
:1012C000002304E07A697B689A42EDD30123184633
:1012D0001837BD4680BD00BFA06400084C670008F9
:1012E0001064000880B500AF114B124A1A60104B11
:1012F0004FF4E1325A600E4B00229A600C4B0022F0
:10130000DA600B4B00221A61094B0C225A61084B20
:1013100000229A61064B0022DA61054801F040FC88
:101320000346002B01D000F061FA00BF80BD00BF72
:10133000740200200044004080B584B000AFF86023
:101340007A601A460B467B8113463B81FFF7CAFF42
:101350003B8919467868FFF737FE0346084A136051
:101360007B891946F868FFF72FFE0346054A13608C
:10137000054803F00BFA00BF18461037BD4680BD84
:10138000F8010020FC010020C464000880B584B08E
:1013900000AF78600B46FB70164B1B68FA787968D3
:1013A0001846FFF727FF0346002B1BD1124B93F87B
:1013B0003D30DBB2202B10D10E4B1B6807F10F0222
:1013C00011461846FFF7E0FE07F10F030122194608
:1013D000094801F032FC012308E0084803F0D6F97F
:1013E000002303E0064803F0D1F900231846103724
:1013F000BD4680BDF801002074020020EC640008A6
:101400000465000880B584B000AF78607B681B6815
:10141000124A93421ED1124B1B681846FFF738FE42
:101420000346FB81FB89002B11D0FB89632B28BF6E
:101430006323FB810A4B1B68FA890A491846FFF7A8
:1014400019FFFB891A460749074801F0F6FB0748D0
:1014500003F09CF900BF1037BD4680BD004400403A
:10146000F801002000020020740200202865000816
:1014700080B483B000AF786000BF0C37BD465DF824
:10148000047B704780B483B000AF78604FF0604356
:10149000D3F8803E03F00103002B13D04FF06043DC
:1014A000D3F8003E03F00103002B0BD000E000BF97
:1014B0004FF060431B68002BF9D04FF060437A680F
:1014C000D2B21A707B6818460C37BD465DF8047BB3
:1014D0007047000080B400AF0A4B1B68094A43F014
:1014E000807313604FF06043D3F8003E4FF06042CA
:1014F00043F00103C2F8003E00BFBD465DF8047B27
:10150000704700BFFCED00E080B586B000AFF8602A
:10151000B9607A6000237B6109E0BB685A1CBA603D
:101520001B781846FFF7AEFF7B6901337B617A6950
:101530007B689A42F1DB7B6818461837BD4680BD50
:1015400080B594B000AF07F1200330220021184687
:1015500002F020FA07F10C0300221A605A609A6028
:10156000DA601A610023BB60284B1B6C274A43F0EA
:1015700080531364254B1B6C03F08053BB60BB6826
:1015800000237B60224B1B68214A43F440431360D5
:101590001F4B1B6803F440437B607B6802233B6264
:1015A0000123FB6210233B630223BB630023FB6325
:1015B00010233B644FF4A8737B640423BB640423AF
:1015C000FB6407F12003184600F076FE0346002B6B
:1015D00001D000F00BF90F23FB6002233B610023D5
:1015E0007B614FF48053BB610023FB6107F10C0367
:1015F0000221184601F0D8F80346002B01D000F074
:10160000F5F800BF5037BD4680BD00BF003802402E
:101610000070004080B58AB000AF07F114030022CB
:101620001A605A609A60DA601A6100233B612D4BA0
:101630001B6B2C4A43F0040313632A4B1B6B03F010
:1016400004033B613B690023FB60264B1B6B254A6F
:1016500043F080031363234B1B6B03F08003FB6099
:10166000FB680023BB601F4B1B6B1E4A43F001034A
:1016700013631C4B1B6B03F00103BB60BB680023AF
:101680007B60184B1B6B174A43F002031363154B27
:101690001B6B03F002037B607B6800222021124851
:1016A00000F0D6FD4FF400537B614FF40413BB618F
:1016B0000023FB6107F1140319460C4800F044FCB9
:1016C00020237B610123BB610023FB6100233B627C
:1016D00007F114031946044800F036FC00BF283710
:1016E000BD4680BD003802400000024000080240B4
:1016F00080B500AF00F012FAFFF722FFFFF78AFF74
:10170000FFF7E8FE00BF80BD80B500AF0A4803F0D8
:101710003DF80A4803F03AF8094803F037F8094859
:1017200003F034F80849094802F0AAFF024803F020
:101730002DF800BF80BD00BF486500087065000837
:1017400094650008B0650008C8650008D465000805
:1017500080B500AFFFF7CCFFFFF7D6FF4FF4007363
:101760000E4A4FF480610E48FFF7E6FD10210D4848
:10177000FFF70CFE10210C48FFF708FE10210B4864
:10178000FFF704FE2D210A48FFF700FE2E2109482D
:10179000FFF7FCFD00F010F8FCE700BFB8060020E2
:1017A000B8020020E0650008F06500080066000847
:1017B000106600084066000880B500AF00F014FA1B
:1017C0000246084B1B68D31AC82B08D900F00CFA44
:1017D0000346044A13602021034800F052FD00BF75
:1017E00080BD00BF640200200000024080B400AF52
:1017F00072B600BFFEE7000080B582B000AF0023E4
:101800007B60104B5B6C0F4A43F4804353640D4B79
:101810005B6C03F480437B607B6800233B60094B77
:101820001B6C084A43F080531364064B1B6C03F097
:1018300080533B603B68072000F0B2FA00BF0837D6
:10184000BD4680BD0038024080B58AB000AF7860E8
:1018500007F1140300221A605A609A60DA601A6174
:101860007B681B681D4A934233D100233B611C4BAC
:101870001B6C1B4A43F400331364194B1B6C03F4B9
:1018800000333B613B690023FB60154B1B6B144A23
:1018900043F001031363124B1B6B03F00103FB6066
:1018A000FB680C237B610223BB610023FB610323E4
:1018B0003B6207237B6207F114031946094800F0D5
:1018C00043FB00220021262000F075FA262000F0BC
:1018D0008EFA00BF2837BD4680BD00BF00440040DF
:1018E000003802400000024080B400AFFEE780B440
:1018F00000AFFEE780B400AFFEE780B400AFFEE7C4
:1019000080B400AFFEE780B400AF00BFBD465DF815
:10191000047B704780B400AF00BFBD465DF8047B18
:10192000704780B400AF00BFBD465DF8047B7047D0
:1019300080B500AF00F044F900BF80BD80B500AFB6
:10194000024801F0BFF900BF80BD00BF7402002053
:1019500080B400AF01231846BD465DF8047B704794
:1019600080B582B000AF7860396001F0CFFF0346E8
:1019700016221A604FF0FF3318460837BD4680BD67
:1019800080B582B000AF78604FF0FF317868FFF724
:10199000E7FFFEE780B586B000AFF860B9607A6017
:1019A00000237B610AE0AFF300800146BB685A1C4C
:1019B000BA60CAB21A707B6901337B617A697B684D
:1019C0009A42F0DB7B6818461837BD4680BD80B46C
:1019D00083B000AF78604FF0FF3318460C37BD4638
:1019E0005DF8047B704780B483B000AF78603960E5
:1019F0003B684FF400525A60002318460C37BD462E
:101A00005DF8047B704780B483B000AF7860012339
:101A100018460C37BD465DF8047B704780B485B02E
:101A200000AFF860B9607A60002318461437BD46ED
:101A30005DF8047B7047000080B586B000AF786029
:101A4000144A154BD31A7B617B693B61134B1B68AE
:101A5000002B02D1114B124A1A60104B1A687B6896
:101A600013443A699A4207D201F050FF03460C2210
:101A70001A604FF0FF3309E0084B1B68FB60074B0F
:101A80001A687B681344054A1360FB6818461837C8
:101A9000BD4680BD00000220000400006802002056
:101AA000D008002080B400AF064BD3F88830054A38
:101AB00043F47003C2F8883000BFBD465DF8047B74
:101AC000704700BF00ED00E0DFF834D00D480E494C
:101AD0000E4A002302E0D458C4500433C4188C4288
:101AE000F9D30B4A0B4C002301E013600432A242ED
:101AF000FBD3FFF7D7FF01F021FFFFF729FE704767
:101B00000000022000000020DC010020706B0008B3
:101B1000DC010020CC080020FEE7000080B500AF0B
:101B20000E4B1B680D4A43F4007313600B4B1B688C
:101B30000A4A43F480631360084B1B68074A43F466
:101B400080731360032000F02BF9002000F008F8E8
:101B5000FFF752FE0023184680BD00BF003C024044
:101B600080B582B000AF7860124B1A68124B1B78B8
:101B700019464FF47A73B3FBF1F3B2FBF3F3184653
:101B800000F043F90346002B01D001230EE07B68EF
:101B90000F2B0AD8002279684FF0FF3000F00BF9C4
:101BA000064A7B681360002300E0012318460837CB
:101BB000BD4680BD00000020080000200400002079
:101BC00080B400AF064B1B781A46064B1B681344C3
:101BD000044A136000BFBD465DF8047B704700BF38
:101BE00008000020B808002080B400AF034B1B6839
:101BF0001846BD465DF8047B704700BFB80800205A
:101C000080B485B000AF78607B6803F00703FB60A9
:101C10000C4BDB68BB60BA684FF6FF031340BB6038
:101C2000FB681A02BB68134343F0BF6343F40033FD
:101C3000BB60044ABB68D36000BF1437BD465DF883
:101C4000047B704700ED00E080B400AF044BDB681C
:101C50001B0A03F007031846BD465DF8047B704776
:101C600000ED00E080B483B000AF0346FB7197F94C
:101C70000730002B0BDBFB7903F01F02074997F9B4
:101C800007305B09012000FA02F241F8232000BF6F
:101C90000C37BD465DF8047B704700BF00E100E0F3
:101CA00080B483B000AF03463960FB7197F9073009
:101CB000002B0ADB3B68DAB20C4997F907301201B6
:101CC000D2B20B4483F800230AE03B68DAB2084939
:101CD000FB7903F00F03043B1201D2B20B441A76D6
:101CE00000BF0C37BD465DF8047B704700E100E0A3
:101CF00000ED00E080B489B000AFF860B9607A60B0
:101D0000FB6803F00703FB61FB69C3F10703042BC6
:101D100028BF0423BB61FB690433062B02D9FB698E
:101D2000033B00E000237B614FF0FF32BB6902FA06
:101D300003F3DA43BB681A407B699A404FF0FF31E6
:101D40007B6901FA03F3D9437B680B4013431846C0
:101D50002437BD465DF8047B7047000080B582B033
:101D600000AF78607B68013BB3F1807F01D3012332
:101D70000FE00A4A7B68013B53600F214FF0FF30B0
:101D8000FFF78EFF054B00229A60044B07221A6072
:101D9000002318460837BD4680BD00BF10E000E0B4
:101DA00080B582B000AF78607868FFF729FF00BF88
:101DB0000837BD4680BD80B586B000AF0346B96028
:101DC0007A60FB7300237B61FFF73EFF78617A68DE
:101DD000B9687869FFF78EFF024697F90F30114610
:101DE0001846FFF75DFF00BF1837BD4680BD80B5C0
:101DF00082B000AF0346FB7197F907301846FFF732
:101E000031FF00BF0837BD4680BD80B582B000AF4E
:101E100078607868FFF7A2FF034618460837BD468A
:101E200080BD80B584B000AF78607B689B6DFB603F
:101E3000FFF7DAFEB8607B6893F83530DBB2022B2F
:101E400008D07B6880225A657B68002283F83420A2
:101E5000012352E07B681B681A687B681B6822F0CC
:101E600016021A607B681B685A697B681B6822F03F
:101E700080025A617B681B6C002B03D17B689B6CD2
:101E8000002B07D07B681B681A687B681B6822F0F0
:101E900008021A607B681B681A687B681B6822F05E
:101EA00001021A6013E0FFF79FFE0246BB68D31AD7
:101EB000052B0CD97B6820225A657B68032283F8A6
:101EC00035207B68002283F83420032315E07B68EB
:101ED0001B681B6803F00103002BE4D17B68DB6DFA
:101EE0003F229A40FB689A607B68012283F8352084
:101EF0007B68002283F83420002318461037BD4643
:101F000080BD80B483B000AF78607B6893F83530D3
:101F1000DBB2022B04D07B6880225A6501230CE0DF
:101F20007B68052283F835207B681B681A687B680C
:101F30001B6822F001021A60002318460C37BD46C8
:101F40005DF8047B7047000080B489B000AF786012
:101F5000396000237B6100233B610023BB610023C8
:101F6000FB6159E10122FB6902FA03F37B613B68E3
:101F70001B687A6913403B613A697B699A4240F079
:101F800048813B685B6803F00303012B05D03B6885
:101F90005B6803F00303022B30D17B689B68BB6155
:101FA000FB695B00032202FA03F3DB43BA691340C7
:101FB000BB613B68DA68FB695B0002FA03F3BA694C
:101FC0001343BB617B68BA699A607B685B68BB61DD
:101FD0000122FB6902FA03F3DB43BA691340BB61D8
:101FE0003B685B681B0903F00102FB6902FA03F31B
:101FF000BA691343BB617B68BA695A603B685B6826
:1020000003F00303032B17D07B68DB68BB61FB691C
:102010005B00032202FA03F3DB43BA691340BB619E
:102020003B689A68FB695B0002FA03F3BA691343E1
:10203000BB617B68BA69DA603B685B6803F00303E5
:10204000022B23D1FB69DA087B68083253F822306F
:10205000BB61FB6903F007039B000F2202FA03F345
:10206000DB43BA691340BB613B681A69FB6903F043
:1020700007039B0002FA03F3BA691343BB61FB69D0
:10208000DA087B680832B96943F822107B681B685C
:10209000BB61FB695B00032202FA03F3DB43BA690D
:1020A0001340BB613B685B6803F00302FB695B00A4
:1020B00002FA03F3BA691343BB617B68BA691A6019
:1020C0003B685B6803F44033002B00F0A2800023E0
:1020D000FB60574B5B6C564A43F480435364544B4C
:1020E0005B6C03F48043FB60FB68524AFB699B080E
:1020F000023352F82330BB61FB6903F003039B00FA
:102100000F2202FA03F3DB43BA691340BB617B6819
:10211000494A934219D07B68484A934213D07B685E
:10212000474A93420DD07B68464A934207D07B686A
:10213000454A934201D1042308E0072306E0032324
:1021400004E0022302E0012300E00023FA6902F028
:10215000030292009340BA691343BB613549FB699E
:102160009B080233BA6941F82320384B1B68BB61D6
:102170003B69DB43BA691340BB613B685B6803F4AE
:102180008033002B03D0BA693B691343BB612F4AEC
:10219000BB6913602D4B5B68BB613B69DB43BA696C
:1021A0001340BB613B685B6803F40033002B03D032
:1021B000BA693B691343BB61244ABB695360234B33
:1021C0009B68BB613B69DB43BA691340BB613B68F9
:1021D0005B6803F48013002B03D0BA693B69134397
:1021E000BB611A4ABB699360184BDB68BB613B69F2
:1021F000DB43BA691340BB613B685B6803F40013BF
:10220000002B03D0BA693B691343BB610F4ABB691A
:10221000D360FB690133FB61FB690F2B7FF6A2AE34
:1022200000BF00BF2437BD465DF8047B704700BF88
:102230000038024000380140000002400004024023
:1022400000080240000C024000100240003C014027
:1022500080B483B000AF78600B467B8013467B7000
:102260007B78002B03D07A887B689A6103E07B88B7
:102270001A047B689A6100BF0C37BD465DF8047B89
:10228000704780B485B000AF78600B467B807B6878
:102290005B69FB607A88FB6813401A04FB68D943CA
:1022A0007B880B401A437B689A6100BF1437BD4698
:1022B0005DF8047B7047000080B586B000AF7860A1
:1022C0007B68002B01D1012364E27B681B6803F06B
:1022D0000103002B75D0A34B9B6803F00C03042B68
:1022E0000CD0A04B9B6803F00C03082B12D19D4B24
:1022F0005B6803F48003B3F5800F0BD1994B1B6827
:1023000003F40033002B5BD07B685B68002B57D154
:1023100001233FE27B685B68B3F5803F06D1914BB8
:102320001B68904A43F4803313601DE07B685B6850
:10233000B3F5A02F0CD18B4B1B688A4A43F4802342
:102340001360884B1B68874A43F4803313600BE0AB
:10235000844B1B68834A23F480331360814B1B68D2
:10236000804A23F4802313607B685B68002B13D0C2
:10237000FFF73AFC386108E0FFF736FC02463B699C
:10238000D31A642B01D9032304E2764B1B6803F4B0
:102390000033002BF0D014E0FFF726FC386108E092
:1023A000FFF722FC02463B69D31A642B01D90323B1
:1023B000F0E16C4B1B6803F40033002BF0D100E01C
:1023C00000BF7B681B6803F00203002B63D0654BE2
:1023D0009B6803F00C03002B0BD0624B9B6803F04F
:1023E0000C03082B1CD15F4B5B6803F48003002BAC
:1023F00016D15C4B1B6803F00203002B05D07B68F1
:10240000DB68012B01D00123C4E1564B1B6823F08C
:10241000F8027B681B69DB00524913430B603AE00A
:102420007B68DB68002B20D04F4B01221A60FFF73E
:10243000DBFB386108E0FFF7D7FB02463B69D31AA4
:10244000022B01D90323A5E1464B1B6803F00203CD
:10245000002BF0D0434B1B6823F0F8027B681B690C
:10246000DB00404913430B6015E03F4B00221A602C
:10247000FFF7BAFB386108E0FFF7B6FB02463B699D
:10248000D31A022B01D9032384E1364B1B6803F0D6
:102490000203002BF0D17B681B6803F00803002BBC
:1024A00030D07B685B69002B16D0304B01221A605C
:1024B000FFF79AFB386108E0FFF796FB02463B699D
:1024C000D31A022B01D9032364E1264B5B6F03F07F
:1024D0000203002BF0D015E0244B00221A60FFF716
:1024E00083FB386108E0FFF77FFB02463B69D31AA4
:1024F000022B01D903234DE11A4B5B6F03F002035A
:10250000002BF0D17B681B6803F00403002B00F064
:10251000A0800023FB75134B1B6C03F08053002B32
:102520000FD10023BB600F4B1B6C0E4A43F080534E
:1025300013640C4B1B6C03F08053BB60BB6801231E
:10254000FB750B4B1B6803F48073002B21D1084BE8
:102550001B68074A43F480731360FFF745FB38613B
:1025600011E000BF0038024000004742800E4742A1
:1025700000700040FFF738FB02463B69D31A022B7C
:1025800001D9032306E1854B1B6803F48073002BFC
:10259000F0D07B689B68012B06D1814B1B6F804A72
:1025A00043F0010313671CE07B689B68052B0CD18B
:1025B0007B4B1B6F7A4A43F004031367784B1B6F06
:1025C000774A43F0010313670BE0754B1B6F744AA6
:1025D00023F001031367724B1B6F714A23F004034E
:1025E00013677B689B68002B15D0FFF7FDFA3861F5
:1025F0000AE0FFF7F9FA02463B69D31A41F2883242
:10260000934201D90323C5E0654B1B6F03F002031E
:10261000002BEED014E0FFF7E7FA38610AE0FFF78D
:10262000E3FA02463B69D31A41F28832934201D958
:102630000323AFE05A4B1B6F03F00203002BEED1D4
:10264000FB7D012B05D1564B1B6C554A23F0805363
:1026500013647B689B69002B00F09B80504B9B6848
:1026600003F00C03082B5CD07B689B69022B41D1E3
:102670004C4B00221A60FFF7B7FA386108E0FFF709
:10268000B3FA02463B69D31A022B01D9032381E036
:10269000434B1B6803F00073002BF0D17B68DA69B1
:1026A0007B681B6A1A437B685B6A9B011A437B68E1
:1026B0009B6A5B08013B1B041A437B68DB6A1B06B1
:1026C000374913434B60374B01221A60FFF78CFAEE
:1026D000386108E0FFF788FA02463B69D31A022BFB
:1026E00001D9032356E02E4B1B6803F00073002B27
:1026F000F0D04EE02B4B00221A60FFF775FA3861DC
:1027000008E0FFF771FA02463B69D31A022B01D9A0
:1027100003233FE0224B1B6803F00073002BF0D132
:1027200037E07B689B69012B01D1012332E01C4B10
:102730005B68FB607B689B69012B28D0FB6803F416
:1027400080027B68DB699A4221D1FB6803F03F027B
:102750007B681B6A9A421AD1FA6847F6C073134025
:102760007A68526A9201934211D1FB6803F44032B5
:102770007B689B6A5B08013B1B049A4207D1FB689C
:1027800003F070627B68DB6A1B069A4201D001236A
:1027900000E0002318461837BD4680BD0070004099
:1027A000003802406000474280B584B000AF7860D6
:1027B00039607B68002B01D10123CCE0684B1B689A
:1027C00003F007033A689A420CD9654B3A68D2B2D3
:1027D0001A70634B1B6803F007033A689A4201D0F2
:1027E0000123B8E07B681B6803F00203002B20D0B4
:1027F0007B681B6803F00403002B05D0594B9B68D2
:10280000584A43F4E05393607B681B6803F0080365
:10281000002B05D0534B9B68524A43F460439360AE
:10282000504B9B6823F0F0027B689B684D49134333
:102830008B607B681B6803F00103002B44D07B682E
:102840005B68012B07D1474B1B6803F40033002B57
:1028500019D101237FE07B685B68022B03D07B6882
:102860005B68032B07D13F4B1B6803F00073002B01
:1028700009D101236FE03B4B1B6803F00203002BDF
:1028800001D1012367E0374B9B6823F003027B688B
:102890005B68344913438B60FFF7A6F9F8600AE0E0
:1028A000FFF7A2F90246FB68D31A41F2883293423D
:1028B00001D903234FE02B4B9B6803F00C027B688C
:1028C0005B689B009A42EBD1254B1B6803F0070322
:1028D0003A689A420CD2224B3A68D2B21A70204B14
:1028E0001B6803F007033A689A4201D0012332E0E3
:1028F0007B681B6803F00403002B08D0194B9B680E
:1029000023F4E0527B68DB68164913438B607B68D5
:102910001B6803F00803002B09D0124B9B6823F4BB
:1029200060427B681B69DB000E4913438B6000F03B
:1029300021F802460B4B9B681B0903F00F030A4961
:10294000CB5C22FA03F3094A1360094B1B68184653
:10295000FFF706F9002318461037BD4680BD00BFBB
:10296000003C024000380240606700080000002080
:10297000040000202DE9B04384B000AF00237B6049
:102980000023FB6000233B600023BB60674B9B6818
:1029900003F00C03082B0DD0082B00F2BD80002B98
:1029A00002D0042B03D0B7E0614BBB60B7E0614BB2
:1029B000BB60B4E05D4B5B6803F03F037B605B4B47
:1029C0005B6803F48003002B4DD0584B5B689B0978
:1029D0001A464FF0000340F2FF104FF0000102EAE8
:1029E000000803EA0109404649464FF000024FF053
:1029F00000034B0143EAD063420110461946B0EB95
:102A0000080061EB09014FF000024FF000038B0159
:102A100043EA90638201121A63EB01034FF0000056
:102A20004FF00001D90041EA5271D00002460B4636
:102A300012EB080243EB09034FF000004FF00001D6
:102A4000590241EAD251500202460B46104619463D
:102A50007B681A464FF00003FEF7AEF802460B46BD
:102A60001346FB604AE0314B5B689B091A464FF006
:102A7000000340F2FF104FF0000102EA000403EAF5
:102A80000105204629464FF000024FF000034B019C
:102A900043EAD063420110461946001B61EB050171
:102AA0004FF000024FF000038B0143EA9063820174
:102AB000121A63EB01034FF000004FF00001D90040
:102AC00041EA5271D00002460B46121945EB03034E
:102AD0004FF000004FF00001990241EA925190023C
:102AE00002460B46104619467B681A464FF0000313
:102AF000FEF762F802460B461346FB600B4B5B6821
:102B00001B0C03F0030301335B003B60FA683B6876
:102B1000B2FBF3F3BB6002E0054BBB6000BFBB68D8
:102B200018461037BD46BDE8B08300BF00380240EC
:102B30000024F40000127A0080B400AF034B1B683D
:102B40001846BD465DF8047B704700BF00000020BA
:102B500080B500AFFFF7F0FF0246054B9B689B0A6C
:102B600003F007030349CB5C22FA03F3184680BD48
:102B7000003802407067000880B500AFFFF7DCFF47
:102B80000246054B9B685B0B03F007030349CB5CD4
:102B900022FA03F3184680BD00380240706700082F
:102BA00080B582B000AF78607B68002B01D1012333
:102BB0003FE07B6893F83D30DBB2002B06D17B68A9
:102BC000002283F83C207868FEF73EFE7B682422D2
:102BD00083F83D207B681B68DA687B681B6822F4F9
:102BE0000052DA60786800F0ABFC7B681B681A69F9
:102BF0007B681B6822F490421A617B681B685A69E3
:102C00007B681B6822F02A025A617B681B68DA68BD
:102C10007B681B6842F40052DA607B6800221A6409
:102C20007B68202283F83D207B68202283F83E20A9
:102C3000002318460837BD4680BD80B485B000AF7C
:102C4000F860B9601346FB80FB6893F83D30DBB257
:102C5000202B30D1BB68002B02D0FB88002B01D188
:102C6000012329E0FB6893F83C30012B01D10223BA
:102C700022E0FB68012283F83C20FB68BA681A62F4
:102C8000FB68FA889A84FB68FA88DA84FB68002279
:102C90001A64FB68212283F83D20FB68002283F838
:102CA0003C20FB681B68DA68FB681B6842F0800206
:102CB000DA60002300E0022318461437BD465DF8B1
:102CC000047B704780B5BAB000AF78607B681B6842
:102CD0001B68C7F8E4307B681B68DB68C7F8E03026
:102CE0007B681B685B69C7F8DC300023C7F8D83005
:102CF0000023C7F8D430D7F8E43003F00F03C7F847
:102D0000D830D7F8D830002B0FD1D7F8E43003F003
:102D10002003002B09D0D7F8E03003F02003002B6C
:102D200003D0786800F051FB56E2D7F8D830002B7A
:102D300000F0DE80D7F8DC3003F00103002B06D171
:102D4000D7F8E03003F49073002B00F0D180D7F86F
:102D5000E43003F00103002B0BD0D7F8E03003F48C
:102D60008073002B05D07B681B6C43F001027B68ED
:102D70001A64D7F8E43003F00403002B0BD0D7F823
:102D8000DC3003F00103002B05D07B681B6C43F0A3
:102D900002027B681A64D7F8E43003F00203002BC8
:102DA0000BD0D7F8DC3003F00103002B05D07B6893
:102DB0001B6C43F004027B681A64D7F8E43003F01C
:102DC0000803002B11D0D7F8E03003F02003002BCC
:102DD00005D1D7F8DC3003F00103002B05D07B6868
:102DE0001B6C43F008027B681A647B681B6C002B29
:102DF00000F0ED81D7F8E43003F02003002B08D079
:102E0000D7F8E03003F02003002B02D0786800F000
:102E1000DCFA7B681B685B6903F04003402B0CBF46
:102E200001230023DBB2C7F8D4307B681B6C03F0AE
:102E30000803002B03D1D7F8D430002B4FD078688B
:102E400000F0E4F97B681B685B6903F04003402BEA
:102E500041D17B681B681433C7F89C30D7F89C308D
:102E600053E8003FC7F89830D7F8983023F0400374
:102E7000C7F8D0307B681B681433D7F8D020C7F868
:102E8000A820C7F8A430D7F8A410D7F8A82041E8A4
:102E90000023C7F8A030D7F8A030002BD9D17B6829
:102EA0009B6B002B13D07B689B6B7D4A1A657B68FC
:102EB0009B6B1846FFF725F80346002B16D07B685E
:102EC0009B6B1B6D7A68926B104698470EE0786892
:102ED00000F086F90AE0786800F082F906E0786888
:102EE00000F07EF97B6800221A6470E100BF6EE199
:102EF0007B681B6B012B40F04A81D7F8E43003F06C
:102F00001003002B00F04381D7F8E03003F01003EA
:102F1000002B00F03C810023BB607B681B681B68B2
:102F2000BB607B681B685B68BB60BB687B681B68B9
:102F30005B6903F04003402B40F0B4807B689B6BDF
:102F40001B685B68A7F8BE30B7F8BE30002B00F0F6
:102F500040817B689B8DB7F8BE209A4280F0398112
:102F60007B68B7F8BE20DA857B689B6BDB69B3F5BD
:102F7000807F00F088807B681B680C33C7F888303E
:102F8000D7F8883053E8003FC7F88430D7F884304A
:102F900023F48073C7F8B8307B681B680C33D7F80C
:102FA000B820C7F89420C7F89030D7F89010D7F819
:102FB000942041E80023C7F88C30D7F88C30002BE0
:102FC000D9D17B681B6814337B677B6F53E8003F64
:102FD0003B673B6F23F00103C7F8B4307B681B6885
:102FE0001433D7F8B420C7F88020FB67F96FD7F8FF
:102FF000802041E80023BB67BB6F002BE1D17B68D9
:103000001B6814333B663B6E53E8003FFB65FB6D6A
:1030100023F04003C7F8B0307B681B681433D7F83F
:10302000B020FA66BB66B96EFA6E41E800237B6693
:103030007B6E002BE3D17B68202283F83E207B68E7
:1030400000221A637B681B680C33FB64FB6C53E83B
:10305000003FBB64BB6C23F01003C7F8AC307B6847
:103060001B680C33D7F8AC20BA657B65796DBA6DF7
:1030700041E800233B653B6D002BE3D17B689B6BF4
:103080001846FEF7CEFE7B689A8D7B68DB8D9BB27F
:10309000D31A9BB21946786800F0ACF899E000BFEB
:1030A000D33200087B689A8D7B68DB8D9BB2D31A84
:1030B000A7F8CE307B68DB8D9BB2002B00F08B80B5
:1030C000B7F8CE30002B00F086807B681B680C338D
:1030D000BB63BB6B53E8003F7B637B6B23F4907354
:1030E000C7F8C8307B681B680C33D7F8C8207A64EF
:1030F0003B64396C7A6C41E80023FB63FB6B002B6B
:10310000E3D17B681B6814337B627B6A53E8003F22
:103110003B623B6A23F00103C7F8C4307B681B683D
:103120001433D7F8C4203A63FB62F96A3A6B41E87A
:103130000023BB62BB6A002BE3D17B68202283F8AB
:103140003E207B6800221A637B681B680C333B615E
:103150003B6953E8003FFB60FB6823F01003C7F8AE
:10316000C0307B681B680C33D7F8C020FA61BB61A4
:10317000B969FA6941E800237B617B69002BE3D1DF
:10318000B7F8CE301946786800F034F823E0D7F865
:10319000E43003F08003002B09D0D7F8E03003F0CF
:1031A0008003002B03D0786800F0A7F814E0D7F86C
:1031B000E43003F04003002B0ED0D7F8E03003F0EA
:1031C0004003002B08D0786800F0E7F804E000BF67
:1031D00002E000BF00E000BFE837BD4680BD00BF91
:1031E00080B483B000AF786000BF0C37BD465DF897
:1031F000047B704780B483B000AF78600B467B805F
:1032000000BF0C37BD465DF8047B704780B495B0B5
:1032100000AF78607B681B680C337B637B6B53E883
:10322000003F3B633B6B23F49073FB647B681B683C
:103230000C33FA6C3A64FB63F96B3A6C41E8002397
:10324000BB63BB6B002BE5D17B681B6814333B620F
:103250003B6A53E8003FFB61FB6923F00103BB6459
:103260007B681B681433BA6CFA62BB62B96AFA6A8B
:1032700041E800237B627B6A002BE5D17B681B6BF6
:10328000012B19D17B681B680C33FB60FB6853E88A
:10329000003FBB60BB6823F010037B647B681B6846
:1032A0000C337A6CBA617B617969BA6941E80023B1
:1032B0003B613B69002BE5D17B68202283F83E20EF
:1032C0007B6800221A6300BF5437BD465DF8047B5B
:1032D000704780B584B000AF78607B689B6BFB6003
:1032E000FB680022DA85FB680022DA84F868FFF7C1
:1032F00077FF00BF1037BD4680BD80B485B000AFFA
:1033000078607B6893F83D30DBB2212B3ED17B683F
:103310009B68B3F5805F14D17B681B69002B10D1CB
:103320007B681B6AFB60FB681B881A467B681B680E
:10333000C2F308025A607B681B6A9A1C7B681A6297
:1033400008E07B681B6A591C7A6811621A787B68EE
:103350001B685A607B68DB8C9BB2013B9BB27A682E
:103360001946D184002B0FD17B681B68DA687B6813
:103370001B6822F08002DA607B681B68DA687B6871
:103380001B6842F04002DA60002300E00223184686
:103390001437BD465DF8047B704780B582B000AF3E
:1033A00078607B681B68DA687B681B6822F04002E3
:1033B000DA607B68202283F83D207868FEF722F8E7
:1033C000002318460837BD4680BD80B58CB000AFDD
:1033D00078607B6893F83E30DBB2222B40F0AB8004
:1033E0007B689B68B3F5805F17D17B681B69002BF6
:1033F00013D10023FB627B689B6ABB627B681B68FE
:103400005B689BB2C3F308039AB2BB6A1A807B68FD
:103410009B6A9A1C7B689A6226E07B689B6AFB62C7
:103420000023BB627B689B68B3F5805F07D07B6835
:103430009B68002B0AD17B681B69002B06D17B6837
:103440001B685B68DAB2FB6A1A7008E07B681B686D
:103450005B68DBB203F07F03DAB2FB6A1A707B6849
:103460009B6A5A1C7B689A627B68DB8D9BB2013B2E
:103470009BB27A681946D185002B5AD17B681B68AC
:10348000DA687B681B6822F02002DA607B681B68C0
:10349000DA687B681B6822F48072DA607B681B68DC
:1034A0005A697B681B6822F001025A617B682022FE
:1034B00083F83E207B681B6B012B35D17B68002293
:1034C0001A637B681B680C337B617B6953E8003FA0
:1034D0003B613B6923F010037B627B681B680C3304
:1034E0007A6A3A62FB61F9693A6A41E80023BB6192
:1034F000BB69002BE5D17B681B681B6803F01003D8
:10350000102B0AD10023FB607B681B681B68FB60E3
:103510007B681B685B68FB60FB687B689B8D19465A
:103520007868FFF767FE02E07868FDF7A1FF0023E7
:1035300002E0002300E0022318463037BD4680BD7C
:103540002DE9F04F9FB000AFF866FB6E1B681B695A
:1035500023F44050FB6ED968FB6E1A6840EA010301
:103560001361FB6E9A68FB6E1B691A43FB6E5B6905
:103570001A43FB6EDB6913433B67FB6E1B68DB681A
:1035800023F4164121F00C01FB6E1A683B6F0B43CC
:10359000D360FB6E1B685B6923F44070FB6E996916
:1035A000FB6E1A6840EA01035361FB6E1A68C54B53
:1035B0009A4204D0FB6E1A68C34B9A4203D1FFF7BC
:1035C000DBFA786702E0FFF7C3FA7867FB6EDB6926
:1035D000B3F5004F40F0B6807B6F1C464FF00005FE
:1035E00022462B46911839645B417B64D7E910234E
:1035F000121945EB03034FF000004FF00001D90012
:1036000041EA5271D00002460B46111939666B41EE
:103610007B66FB6E5B681A464FF000039118B96336
:103620005B41FB63D7E90E23D7E91801FDF7C4FA24
:1036300002460B46A54BA3FB02235B091E017B6FD1
:103640001C464FF0000522462B46911839635B411A
:103650007B63D7E90C23121945EB03034FF00000FD
:103660004FF00001D90041EA5271D00002460B46EA
:103670001119B9656B41FB65FB6E5B681A464FF02B
:1036800000039118B9625B41FB62D7E90A23D7E9CD
:103690001601FDF791FA02460B468C4BA3FB021371
:1036A0005B09642101FB03F3D31ADB003233874A41
:1036B000A2FB03235B095B0003F4F8731E447B6FDA
:1036C00018464FF0000102460B4694183C625B41DD
:1036D0007B62D7E90823121841EB03034FF0000483
:1036E0004FF00005DD0045EA5275D40022462B4616
:1036F00014183C654B417B65FB6E5B681A464FF0C6
:1037000000039118B9615B41FB61D7E90623D7E952
:103710001401FDF751FA02460B466C4BA3FB021352
:103720005B09642101FB03F3D31ADB003233674AE0
:10373000A2FB03235B0903F00702FB6E1B68324404
:103740009A60B9E07B6F1C464FF0000522462B467D
:10375000911839615B417B61D7E90423121945EB6C
:1037600003034FF000004FF00001D90041EA52710D
:10377000D00002460B4612EB040843EB0509FB6E32
:103780005B6818464FF000014FF000024FF0000355
:103790008B0043EA9073820040464946FDF70CFADD
:1037A00002460B46494BA3FB02235B091E017B6FBC
:1037B00018464FF0000102460B469418BC605B416E
:1037C000FB60D7E90223121841EB03034FF000041A
:1037D0004FF00005DD0045EA5275D40022462B4625
:1037E0001418BC644B41FB64FB6E5B6818464FF0D9
:1037F00000014FF000024FF000038B0043EA90738A
:103800008200D7E91201FDF7D7F902460B462F4B8C
:10381000A3FB02135B09642101FB03F3D31A1B0111
:1038200032332A4AA2FB03235B0903F0F0031E4450
:103830007B6F18464FF0000102460B4694183C601F
:103840005B417B60D7E90023121841EB03034FF083
:1038500000044FF00005DD0045EA5275D400224611
:103860002B4612EB000A43EB010BFB6E5B6818461C
:103870004FF000014FF000024FF000038B0043EACD
:103880009073820050465946FDF796F902460B4662
:103890000E4BA3FB02135B09642101FB03F3D31A54
:1038A0001B013233094AA2FB03235B0903F00F0219
:1038B000FB6E1B6832449A6000BF7C37BD46BDE892
:1038C000F08F00BF00100140001401401F85EB5134
:1038D0001FB514461A46094B1B680546D8684CB1FB
:1038E000074B0091CDE9013406492B4600F014F84E
:1038F00001F024F8044B1C46F3E700BF0C00002045
:103900007867000885670008B3670008014B1868EE
:10391000704700BF0C0000200EB403B5014603AB96
:10392000054853F8042B0068019300F00FF902B02A
:103930005DF804EB03B070470C00002070B50D4D2E
:103940000D4C641BA4100026A64209D10B4D0C4C53
:1039500002F04EFD641BA4100026A64205D170BDE6
:1039600055F8043B98470136EEE755F8043B984775
:103970000136F2E7686B0008686B0008686B0008A6
:103980006C6B0008024B0146186800F05BB800BF82
:103990000C00002002440346934200D1704703F814
:1039A000011BF9E737B5002948D051F8043C0190D4
:1039B000002BA1F10404B8BFE41802F06FF8204A0C
:1039C00001981368154633B96360146003B0BDE80D
:1039D000304002F069B8A3420BD9216862189342C3
:1039E00004BF1A685B68636004BF521822602C60D1
:1039F000ECE71A465B680BB1A342FAD91168551877
:103A0000A5420BD1246821445418A3421160DDD192
:103A10001C685B68536021441160D7E702D90C230E
:103A20000360D3E7256861198B4204BF19685B689E
:103A3000636004BF491921605460C7E703B030BD1B
:103A40006C020020F8B5CD1C25F0030508350C2DBF
:103A500038BF0C25002D064601DBA94203D90C23F3
:103A600033600020F8BD02F019F821490A681446B5
:103A70009CB9204F3B6823B92146304600F08EFEAA
:103A800038602946304600F089FE431C23D10C23C0
:103A90003360304602F008F8E3E723685B1B17D475
:103AA0000B2B03D923601C44256004E06368A24209
:103AB0000CBF0B605360304601F0F6FF04F10B00C1
:103AC000231D20F00700C21ACCD01B1AA350C9E74F
:103AD00022466468CCE7C41C24F00304A042E3D06F
:103AE000211A304600F05AFE0130DDD1CFE700BF89
:103AF0006C020020700200209368013B002B10B480
:103B0000936008DA9469A34201DB0A2903D15DF8C6
:103B1000044B00F053BE1368581C1060197008461F
:103B20005DF8044B7047F8B506460F461446D518A5
:103B3000AC4201D1002007E014F8011B3A463046A0
:103B4000FFF7DAFF431CF3D1F8BD00002DE9F04F79
:103B50000D469DB014469846064618B183690BB9C8
:103B600001F084FE894B9D421BD175686B6ED907AD
:103B700005D4AB899A0502D4A86D01F01AFFAB8970
:103B80001B0701D52B69EBB92946304600F068FECA
:103B9000C0B16B6EDC070ED54FF0FF301DB0BDE835
:103BA000F08F7B4B9D4201D1B568DFE7794B9D4299
:103BB00008BFF568DAE7AB899805EDD4A86D01F088
:103BC000F9FEE9E70023099320238DF82930CDF889
:103BD0000C803023DFF8C0818DF82A304FF00109C6
:103BE00023469A4613F8012B0AB1252AF9D1BAEBDC
:103BF000040B0BD05B46224629463046FFF793FF65
:103C0000013000F0AA80099A5A4409929AF80030CB
:103C1000002B00F0A28000234FF0FF32CDE90523F6
:103C20000AF1010A049307938DF853301A9354460E
:103C3000052214F8011B5848FCF7DAFA049AD8B99F
:103C4000D10644BF20238DF85330130744BF2B23E4
:103C50008DF853309AF800302A2B15D0079A544625
:103C600000204FF00A0C214611F8013B303B092B94
:103C70004ED9B0B1079214E0A0EB080309FA03F3A0
:103C800013430493A246D2E7039B191D1B680391BB
:103C9000002BBBBF5B4242F0020207930793B8BF01
:103CA000049223782E2B0CD163782A2B35D1039BD9
:103CB0001A1D1B680392002BB8BF4FF0FF3302346C
:103CC0000593DFF8E4A0217803225046FCF790FA30
:103CD00040B14023A0EB0A0003FA00F0049B034329
:103CE0000134049314F8011B2C488DF82810062287
:103CF000FCF77EFA00283FD0294B1BBB039B073300
:103D000023F0070308330393099B3B44099367E7B8
:103D10000CFB02320C460120A5E700230134059379
:103D200019464FF00A0C204610F8012B303A092AA8
:103D300003D9002BC5D00591C3E70CFB0121044634
:103D40000123F0E703AB00932A46164B04A9304643
:103D500000F0CCF80746781CD6D16B6ED90705D495
:103D6000AB899A0502D4A86D01F024FEAB895B06ED
:103D70003FF512AF099811E703AB00932A46094BB0
:103D800004A9304600F056FBE4E700BFB468000821
:103D9000D468000894680008B8670008C267000883
:103DA000ED3E0008273B0008BE6700082DE9FF47ED
:103DB00055EC104B002D0E4619462B46BBBF05F1A6
:103DC00000431D4600232D230B700D9BDDF830A012
:103DD000914623F02008BCBF22461446B8F1460F96
:103DE00005D0B8F1450F00D10136022100E00321D2
:103DF00003AB019302AB009345EC104B53463246A4
:103E000000F02EFEB8F1470F074602D119F0010F5E
:103E100022D0B8F1460F07EB060910D13B78302BC2
:103E20000AD10022002320462946FCF755FE18B986
:103E3000C6F10106CAF80060DAF8003099440022A1
:103E4000002320462946FCF747FE08B1CDF80C9028
:103E50003022039B4B4507D3039B0E9ADB1B38464E
:103E6000136004B0BDE8F087591C03911A70F0E7A5
:103E7000F7B503460029B8BF494203F8022BB4BF87
:103E80002D222B22092942702ADD0DF10704A446B8
:103E90000A27A6460A4691FBF7F607FB16153035AA
:103EA000632A04F1FF340EF8015C3146F1DC303155
:103EB000AEF1020504F8011C441C294661450AD3F1
:103EC0000DF10902A2EB0E02654588BF00221344E2
:103ED000181A03B0F0BD11F8012B04F8012FEDE71B
:103EE000302330318370C170031DF1E72DE9F04FAD
:103EF0002DED028B8DB00C46DDF8608016461F4616
:103F0000054601F051FDD0F800A05046FCF768F9D5
:103F100000230A9323680593D8F8003094F818B06A
:103F2000073323F0070303F10802C8F80020D3E9A0
:103F30000023C4E91223D4E9128929F0004307932E
:103F4000CDF8188008EE100A9F4BDDE906014FF00E
:103F5000FF32FCF7F3FD88BBDDE906019A4B4FF019
:103F6000FF32FCF7CDFD48BB002200234046494606
:103F7000FCF7BCFD10B12D2384F84330934B9448DB
:103F8000BBF1470F94BF9846804603232361059BEE
:103F900023F0040222604FF00009009733460BAA79
:103FA0002146284600F0D8F9013040F090804FF0CB
:103FB000FF300DB0BDEC028BBDE8F08F42464B46A2
:103FC00040464946FCF7BAFD40B14B46002BBCBF0A
:103FD0002D2384F843307F487F4BD1E763680BF093
:103FE000DF0206925A1C3FD106236360059B61687D
:103FF00043F48062002303930AABCDE901B309AB1C
:1040000049EC108B009322600DF123032846FFF743
:10401000CDFE069B0999472B804608D1C81C02DBC0
:104020006368994241DDABF1020B5FFA8BFBBBF198
:10403000650F20D801395A4604F150000991FFF765
:1040400017FF0A9A1318012A8146236102DC2268AD
:10405000D20701D5013323619DF82330002B9CD07A
:104060002D2384F8433098E7069A472ABED1002BC7
:10407000BCD10123B9E7BBF1660F18D100296368F1
:104080000BDD216113B92268D00702D501330B443F
:104090002361A1654FF00009DEE713B92268D2075A
:1040A00001D50233F4E70123F2E74FF0670B0A9BD7
:1040B000994205DB23682161D807EAD54B1CE7E765
:1040C0000029D4BFC1F1020201221344E0E72368B2
:1040D0005A0507D42369424631462846B84701307D
:1040E0002CD164E7BBF1650F40F2E080D4E9120106
:1040F00000220023FCF7F0FC002834D0374A0123CB
:1041000031462846B84701303FF451AFDDE9092375
:104110009A4202DB2368D80710D518EE103A5246AF
:1041200031462846B84701303FF441AF4FF0000810
:1041300004F11A090A9B013B434509DC23689B07EC
:1041400000F10581E0680B9B9842B8BF184630E744
:1041500001234A4631462846B84701303FF427AF8D
:1041600008F10108E6E7099B002B39DC1B4A012313
:1041700031462846B84701303FF419AFDDE909233D
:10418000134302D12368D907D8D518EE103A524606
:1041900031462846B84701303FF409AF4FF00009D7
:1041A00004F11A0A099B5B424B4501DC0A9B92E72A
:1041B0000123524631462846B84701303FF4F7AE56
:1041C00009F10109EEE700BFFFFFEF7FC9670008B3
:1041D000CD670008D5670008D1670008D9670008D7
:1041E0000A9AA36D9A42A8BF1A46002A914637DC64
:1041F0004FF0000B29EAE97904F11A02A36D059347
:10420000A3EB09035B4533DCDDE909239A423BDB81
:104210002368DA0738D40A9A059B0999D31AA2EBC6
:1042200001099945A8BF9946B9F1000F35DC4FF057
:10423000000829EAE97904F11A0ADDE909239B1A41
:10424000A3EB090343457FF779AF0123524631467B
:104250002846B84701303FF4AAAE08F10108ECE760
:104260001346314642462846B8470130C0D19EE643
:104270000123314628460592B84701303FF497AEF6
:10428000059A0BF1010BB9E718EE103A5246314688
:104290002846B8470130BED189E6059A4B464244CC
:1042A00031462846B8470130C1D180E60A9A012A32
:1042B00001DCDB0738D50123424631462846B847A2
:1042C00001303FF474AE18EE103A5246314628469B
:1042D000B84701303FF46BAED4E91201002200234D
:1042E000FCF7FAFBD8B90A9B08F10102013B314601
:1042F0002846B84701300ED159E6012352463146CF
:104300002846B84701303FF452AE08F101080A9B35
:10431000013B4345F1DC4B4604F15002DCE64FF033
:10432000000804F11A0AF2E701234246DFE70123FD
:104330004A4631462846B84701303FF438AE08F1C6
:104340000108E3680B995B1A4345F0DCFAE64FF08D
:10435000000804F11909F4E72DE9F04716469946DB
:104360008A680B69DDF820809342B8BF134633603A
:1043700091F8432007460C460AB1013333602368A5
:10438000990642BF336802333360256815F006058D
:1043900006D104F1190AE36832689B1AAB4226DCA5
:1043A00094F84320131E226818BF012392062BD4D1
:1043B00004F1430249463846C04701301ED0236805
:1043C000E568326803F00603042B08BFAD1AA36842
:1043D00022690CBF25EAE57500259342C4BF9B1AEC
:1043E000ED1800261A34B5421AD1002008E0012346
:1043F000524649463846C047013003D14FF0FF309E
:10440000BDE8F0870135C6E7E1185A1C302081F875
:104410004300224494F8451082F843100233C7E762
:104420000123224649463846C0470130E6D00136CE
:10443000D9E700002DE9FF470C469146277E0C99ED
:10444000782F80469A4604F1430207D8622F0AD893
:10445000002F00F0D880582F00F0A38004F142060E
:1044600084F842703AE0A7F16303152BF6D801A057
:1044700050F823F0CD440008E14400085D440008F2
:104480005D4400085D4400085D440008E144000804
:104490005D4400085D4400085D4400085D44000878
:1044A000ED45000811450008CF4500085D440008AF
:1044B0005D4400080F4600085D44000811450008EF
:1044C0005D4400085D440008D74500080B681A1DCC
:1044D0001B680A6004F1420684F842300123A3E01D
:1044E000256808682E0600F104030AD505680B60EC
:1044F000002D03DA2D236D4284F843305E480A23F1
:1045000019E015F0400F05680B6018BF2DB2EFE7FA
:104510000B682568181D0860280601D51D6802E093
:104520006906FBD51D8854486F2F0CBF08230A234A
:10453000002184F843106668A660002EA2BF21689F
:1045400021F0040121600DB9002E4DD01646B5FBB7
:10455000F3F103FB1157C75D06F8017D2F46BB42FF
:104560000D46F4D9082B0BD12368DF0708D5236942
:1045700061689942DEBF302306F8013C06F1FF3640
:10458000921B2261CDF800A04B4603AA214640466B
:10459000FFF7E2FE01304CD14FF0FF3004B0BDE830
:1045A000F087354884F8457023680E681F0656F872
:1045B000045B0E6014D5D90744BF43F02003236089
:1045C0001DB9236823F0200323601023B0E723687C
:1045D00043F0200323607823284884F84530E3E73C
:1045E0005E0648BFADB2E6E71646BBE70B68266835
:1045F00060691D1D0D6035061B6801D5186002E05D
:104600007106FBD51880002323611646BAE70B68B4
:104610001A1D0A601E68626800213046FBF7E8FD3B
:1046200008B1801B606063682361002384F8433015
:10463000A8E72369324649464046D0470130ABD00F
:1046400023689B0713D4E068039B9842B8BF1846C1
:10465000A4E70123324649464046D04701309BD06B
:104660000135E36803995B1AAB42F2DCEBE7002506
:1046700004F11906F5E700BFDB670008EC670008E6
:104680000FB40A4B13B51C6824B1A36913B92046B3
:1046900001F0ECF805AB049AA16801932046FFF7FE
:1046A00055FA02B0BDE8104004B070470C0000207D
:1046B00070B50E46054618B183690BB901F0D6F8FE
:1046C000AB69AC6813B9284601F0D0F82C4B9C427A
:1046D00020D16C68636EDB0705D4A389980502D4EA
:1046E000A06D01F066F9A38919071DD52369DBB117
:1046F000013EA36816F8011F013BA36039BB002BE4
:1047000038DA22460A21284600F058F8013011D044
:104710000A2511E01B4B9C4201D1AC68DAE71A4B29
:104720009C4208BFEC68D5E72146284600F098F87F
:104730000028DDD04FF0FF35636EDA0705D4A3897A
:104740009B0502D4A06D01F035F9284670BD002B01
:1047500004DAA2699A4206DC0A2904D023685A1CAA
:1047600022601970C5E72246284600F027F801307C
:10477000BFD1DFE723680A255A1C22601D70DBE7E2
:10478000B4680008D468000894680008024B014629
:104790001868FFF78DBF00BF0C00002038B5064D2C
:1047A0000023044608462B60FDF746F9431C02D15E
:1047B0002B6803B1236038BDC8080020F8B50E4649
:1047C0001446054618B183690BB901F04FF8214B27
:1047D0009C422BD16C68A369A360A3891A072FD5CB
:1047E00023696BB323692068C01A6369F6B28342F8
:1047F000374604DC2146284600F0A4FF30BBA368FE
:10480000013BA36023685A1C22601E70636901305B
:10481000834204D0A389DB0706D50A2E04D12146A2
:10482000284600F08FFF88B93846F8BD0A4B9C42F5
:1048300001D1AC68CFE7094B9C4208BFEC68CAE7DE
:104840002146284600F00CF80028CBD04FF0FF3767
:10485000EAE700BFB4680008D4680008946800085C
:10486000324B70B51D6806460C4625B1AB6913B9CD
:10487000284600F0FBFF2E4B9C420FD16C68A389A9
:10488000B4F90C2019072CD4DD0611D409233360A8
:1048900042F04003A3814FF0FF303EE0254B9C42A5
:1048A00001D1AC68EBE7244B9C4208BFEC68E6E71B
:1048B000580712D5616B41B104F14403994202D00B
:1048C0003046FFF76FF800236363A38923F02403C6
:1048D000A3810023636023692360A38943F0080355
:1048E000A38123694BB9A38903F42073B3F5007F37
:1048F00003D02146304601F083F8A089B4F90C209A
:1049000010F001030AD00023A36063695B42A36136
:10491000236943B910F08000BAD170BD810758BF38
:104920006369A360F4E70020F7E700BF0C000020F4
:10493000B4680008D46800089468000808B5062028
:1049400001F06EFC0120FDF71BF82DE9F74F03691C
:104950000C69A3420746C0F28180013C01F11408B2
:1049600000F1140505EB8403019358F8243055F841
:10497000242001339A424FEA840B08EB8409B2FBEE
:10498000F3F631D34FF0000E4046AC46F24650F8F5
:10499000042B93B206FB03E34FEA134E9BB2AAEB40
:1049A0000303120CDCF800A006FB02E213FA8AF300
:1049B0004FEA124E1FFA82FADCF80020CAEB1242CC
:1049C00002EB23429BB243EA024381454CF8043B8D
:1049D0004FEA224ADBD255F80B302BB9019B043B3E
:1049E0009D421A462ED33C61384601F0E1FA002878
:1049F00024DB013628464FF0000C58F8042BD0F881
:104A000000E093B2ACEB0303120C13FA8EF3C2EB8B
:104A10001E4202EB23429BB243EA0243C14540F8E7
:104A2000043B4FEA224CE8D255F8242005EB8403DE
:104A300022B9043B9D421A460AD33C61304603B07A
:104A4000BDE8F08F1268043B002ACCD1013CC7E7D7
:104A50001268043B002AF0D1013CEBE70020EEE7AE
:104A60002DE9F04F2DED028B57EC106B95B0456A98
:104A7000DDF880800591CDE90267044609920F9325
:104A800075B91020FEF77EFF0246606220B9B24B76
:104A9000EA21B248FEF71CFFC0E901550560C56078
:104AA000636A196851B15A684A60012393408B6068
:104AB000204601F03FF8636A00221A603B1EB9BF2E
:104AC00023F0004303930023C8F80030DDF80C9076
:104AD000A34BBCBF0122C8F8002033EA09031BD155
:104AE0000F9A42F20F731360C9F31303334300F0BC
:104AF0007A85219B63B99B4B24E09B4B0093083341
:104B0000219A1360009815B0BDEC028BBDE8F08FC0
:104B1000944B00930333F3E79DED027B002251ECAD
:104B2000170B00238DED0A7BFBF7D6FF804658B1AB
:104B30000F9A01231360219B002B00F051858B48B5
:104B40001860431E0093DDE79DED0A0B12AA13A91E
:104B5000204601F0D1FAC9F30A558346002D7CD0D6
:104B60000B9BCDF84080C3F31303DDE90A6743F0E4
:104B70007F5747F44017A5F2FF357D4B00223046A2
:104B80003946FBF789FB6EA3D3E90023FBF73CFD15
:104B90006DA3D3E90023FBF781FB064628460F46A9
:104BA000FBF7C8FC6AA3D3E90023FBF72DFD0246FF
:104BB0000B4630463946FBF771FB06460F46FBF7BE
:104BC000D3FF00228246002330463946FBF78EFF92
:104BD00048B15046FBF7AEFC32463B46FBF77CFF44
:104BE00008B90AF1FF3ABAF1160F54D8614B03EB3A
:104BF000CA03D3E90023DDE90A01FBF777FF0028A8
:104C00004BD00AF1FF3A00230E93129B5D1B6B1EE3
:104C1000049343BF0023C5F1010804934FF000083B
:104C2000BAF1000F3BDB049BCDF834A0534404934E
:104C300000230693059B092B69D8052BC4BF043BB1
:104C40000593059BA3F10203CCBF00250125032B8F
:104C500069D8DFE803F02C4E4C5ADDE912531D44AD
:104C600005F23243202BC1BFC3F1400305F21240CD
:104C700009FA03F326FA00F0DABFC3F1200306FABB
:104C800003F01843FBF746FC01230646A1F1F87731
:104C9000013D109371E70123B6E70E90B5E7CAF125
:104CA000000306930023A8EB0A080D93C2E7002334
:104CB0000893099B002B39DC4FF00109CDF80490D3
:104CC0004B46CDF82490606A00224260042202F133
:104CD00014069E4241682FD9204600F0EBFE00905A
:104CE00000284BD1244B02464FF4D571D1E6012365
:104CF000DEE700230893099B0AEB030909F101038E
:104D0000012B0193B8BF0123DDE70123F2E7012561
:104D10000023059308954FF0FF390022CDF8049049
:104D200012230992CFE701230893F4E7DDF82490DA
:104D3000CDF804904B46C6E7013141605200C6E70A
:104D400061436F63A787D23FB3C8608B288AC63F91
:104D5000FB799F501344D33F0A680008216800087C
:104D60000000F07F06680008FD670008DA670008A9
:104D70000000F83F8069000880680008636A009AB4
:104D80001A60019B0E2B00F2AD80002D00F0AA806E
:104D9000BAF1000F36DDC34A0AF00F0302EBC3037A
:104DA00093ED007B1AF4807F4FEA2A17B0EE478A12
:104DB000F0EE678A16D0BC4BDDE90A01D3E908237F
:104DC000FBF74CFDCDE9020107F00F070325B64EB6
:104DD00057B9DDE9020153EC182BFBF73FFDCDE994
:104DE000020129E00225F2E7F90708D551EC180B7A
:104DF000D6E90023FBF708FC41EC180B01357F10C6
:104E00000836E5E700F0A680CAF10006A54BA64FDC
:104E100006F00F0203EBC203D3E90023DDE90A0128
:104E2000FBF7F2FBCDE90201361100230225002E2B
:104E300040F08580002BD2D10E9B002B00F08C809F
:104E4000DDE90267994B002230463946FBF74EFEFA
:104E5000002800F08180019B002B7DD0B9F1000F6C
:104E60003CDD0AF1FF3307930022914B304639466F
:104E7000FBF7CAFBCDE902010135CDF83090DDE941
:104E800002672846FBF756FB32463B46FBF7BCFB66
:104E9000884B0022FBF702FAA1F15073CDE9020121
:104EA00003930C9B002B5CD1834B00223046394688
:104EB000FBF7F2F9DDE9022306460F46FBF734FE65
:104EC000002840F09682DDE90221304601F10043DE
:104ED0003946FBF70BFE002840F08882DDE90A2303
:104EE000CDE90223139B002BC0F25881BAF10E0FBB
:104EF00000F354816B4B03EBCA03D3E90089099B90
:104F0000002B80F2E380019B002B00F3DF8040F058
:104F10006D82694B002240464946FBF775FBDDE98F
:104F20000223FBF7F7FD019E3746002840F043823D
:104F3000009D312305F8013B0AF1010A3FE2F20727
:104F400005D5D7E90023FBF75FFB01350123761078
:104F500008376CE702256FE7019BCDF81CA00C9386
:104F60008DE700990C980C9A4E4B9DED027B014405
:104F700002910899B0EE478AF0EE678A03EBC2030C
:104F800053E90223002945D04C490020FBF766FC79
:104F900053EC182BFBF780F9009D41EC180B3946B8
:104FA0003046FBF7E1FD0C90FBF7C4FA02460B46D6
:104FB00030463946FBF770F90C9B303305F8013B5E
:104FC00053EC182B06460F46FBF790FD002865D1E1
:104FD00032463B4635490020FBF75EF953EC182B6F
:104FE000FBF784FD002840F0B980029B9D423FF40E
:104FF00075AF2F4B51EC180B0022FBF705FB2C4B28
:1050000041EC180B002230463946FBF7FDFA064604
:105010000F46C4E751EC170BFBF7F6FA029B009D15
:105020000C9341EC180B39463046FBF79DFD11906F
:10503000FBF780FA02460B4630463946FBF72CF95F
:10504000119B303305F8013B029B9D4206460F46FB
:105050004FF0000234D1194B51EC180BFBF71EF93D
:1050600002460B4630463946FBF75EFD002875D1F7
:1050700053EC182B11490020FBF70EF902460B46A2
:1050800030463946FBF732FD00283FF427AF0C9D30
:105090006B1E0C9315F8013C302BF8D0DDF81CA0EA
:1050A0004AE000BF80690008586900080000F03F2E
:1050B0000000244000001C40000014400000E03FBD
:1050C000AF4BFBF7A1FA06460F46ACE7DDE90267F6
:1050D000009D42464B4630463946FBF7BFFBFBF787
:1050E00043FD0290FBF726FA42464B46FBF78CFA4B
:1050F00002460B4630463946FBF7CEF8029E019F2A
:10510000303605F8016B009EAE1BB74202460B46D7
:1051100037D1FBF7C3F842464B4606460F46FBF72E
:1051200003FDC8B942464B4630463946FBF7D4FC2E
:1051300010B1029BD9070FD42046594600F0FAFC63
:1051400000232B700F9B0AF101001860219B002B9C
:105150003FF4D8AC1D60D5E4CDF81CA02B461D460D
:1051600013F8012D392A08D1009A9A42F7D1079AEB
:1051700000990132079230220A701A7801321A70AF
:105180008CE77F4B0022FBF73FFA00220023064604
:105190000F46FBF7A1FC00289BD0CDE7089A002A18
:1051A00000F0C480059A012A00F3A880109A002A12
:1051B00000F0A08003F23343069E4546049A012185
:1051C0001A4420469844049200F070FD0746002DD2
:1051D0000BDD049B002B08DDAB42049AA8BF2B46D5
:1051E000A8EB0308ED1AD31A0493069BFBB1089BA6
:1051F000002B00F09F80002E11DD394632462046FC
:1052000000F010FE5A4601460746204600F064FDB5
:1052100059460790204600F08DFC079B9B46069B55
:105220009A1B04D05946204600F0FCFD834601211C
:10523000204600F03BFD0D9B002B06467CDD1A4608
:105240000146204600F0EEFD059B012B064676DD6B
:1052500000230693336906EB8303186900F0D6FC3C
:10526000C0F12000049B184410F01F0000F086805D
:10527000C0F12003042B7FDDC0F11C00049B03441C
:10528000804405440493B8F1000F05DD59464246B9
:10529000204600F021FE8346049B002B05DD3146AD
:1052A0001A46204600F018FE06460E9B002B69D0D9
:1052B0003146584600F07CFE002863DA0023594648
:1052C0000A22204600F058FC089B0AF1FF3A834668
:1052D000002B00F08F81394600230A22204600F07F
:1052E0004BFCB9F1000F074600F38E80059B022BA3
:1052F00050DC89E0129BC3F136035DE7019B5E1E23
:10530000069BB342BFBF069B0696F21A0D9BB6BF23
:105310009B189E1B0D93019BB8BF0026002BB5BFA9
:10532000A8EB0305019B0023454647E7069E089F1F
:1053300045464CE7069A75E7059B012B18DC029B56
:10534000B3B9039BC3F31303A3B9039B23F0004337
:105350001B0D1B052BB1049B0133049308F10108BD
:10536000012306930D9B002B7FF474AF012079E796
:105370000023F6E7029BF4E785D018461C307DE752
:1053800000002440019B002B38DC059B022B35DDFF
:10539000DDF80490B9F1000F0DD131464B460522DE
:1053A000204600F0E9FB01460646584600F000FEA4
:1053B00000283FF7BDAD099B009D6FEA030A4FF03F
:1053C00000083146204600F0B5FB002F3FF4B4AE94
:1053D000B8F1000F05D0B84503D04146204600F093
:1053E000A9FB3946204600F0A5FBA5E60026374676
:1053F000E1E70C9EDDF81CA0374699E5089BDDF837
:105400000490002B00F0FD80002D05DD39462A4672
:10541000204600F061FD0746069B002B5CD07968B2
:10542000204600F047FB054628B9804B024640F273
:10543000EA21FFF72EBB3A690232920007F10C0114
:105440000C3000F01DFB01222946204600F044FDEF
:10545000009B01330193009B4B440793029B03F095
:105460000103B84606930746019B3146013B584667
:105470000293FFF76AFA03463033049041465846D8
:10548000089300F095FD3A4681463146204600F0EB
:10549000ABFDC268089B054602BB0146584600F0BA
:1054A00087FD089B024629462046CDE9083200F0D8
:1054B00041FB059B099A019D43EA0201069B0B43B0
:1054C000089B0DD1392B29D0B9F1000F01DD049BC8
:1054D0003133029A137074E73846B9E70122E2E7E4
:1054E000B9F1000F06DB059941EA0909069959EA65
:1054F000010120D1002AECDD59460122204601930A
:1055000000F0EAFC3146834600F052FD0028019B82
:1055100002DCDED1DA07DCD5392BD8D1029A392367
:1055200013702B461D46013B15F8012C392A50D02B
:1055300001321A7045E7002A03DD392BEED0013322
:10554000C7E7019A079902F8013C8A422AD05946D6
:1055500000230A22204600F00FFBB84583464FF097
:1055600000034FF00A024146204607D100F004FB39
:1055700080460746019B0133019375E700F0FCFA72
:105580003946804600230A22204600F0F5FA0746F5
:10559000F0E7B9F1000F009ACCBF4D460125154444
:1055A0004FF00008594601222046019300F094FC78
:1055B0003146834600F0FCFC0028B2DC02D1019B9E
:1055C000DB07AED42B461D4613F8012D302AFAD046
:1055D000F7E6009A9A42A5D10AF1010A312379E748
:1055E000134BFFF7AFBA219B002B7FF486AA114B18
:1055F000FFF7A8BAB9F1000F03DC059B022B3FF7B8
:10560000C9AE009D31465846FFF79FF900F13003BF
:1056100005F8013B009AAA1A9145BADD59460023C4
:105620000A22204600F0A8FA8346EBE780680008CB
:10563000D9670008FD6700088A892DE9F041054611
:1056400010070C4658D44B68002B05DC0B6C002B64
:1056500002DC0020BDE8F081E66A002EF9D00023CC
:1056600012F480522F682B6032D0606DA3895A07E4
:1056700005D56368C01A636B0BB1236CC01A002395
:105680000246E66A216A2846B047431CA38906D130
:1056900029681D292CD82A4ACA40D60728D50022B5
:1056A0006260D9042269226004D5421C01D12B68B2
:1056B00003B96065616B2F600029CAD004F144030F
:1056C000994202D02846FEF76DF900206063C1E7D9
:1056D000216A01232846B047411CC7D12B68002B03
:1056E000C4D01D2B01D0162B01D12F60B1E7A389A7
:1056F00043F04003A381ADE70F69002FA9D09307C2
:105700000E6808BF4B690F6018BF0023A6EB07089F
:105710008B60B8F1000F9CDD216AA66A43463A46C9
:105720002846B047002806DCA38943F04003A38144
:105730004FF0FF308EE70744A8EB0008E9E700BF11
:105740000100402038B50B6905460C4613B9002509
:10575000284638BD18B183690BB900F087F8144B9F
:105760009C421BD16C68B4F90C30002BEFD0626EF8
:10577000D00704D4990502D4A06D00F01AF9284688
:105780002146FFF759FF636EDA070546E0D4A38987
:105790009B05DDD4A06D00F00DF9D9E7054B9C42C7
:1057A00001D1AC68DFE7044B9C4208BFEC68DAE744
:1057B000B4680008D468000894680008002310B595
:1057C0000446C0E90033C0E9043383608181436645
:1057D000C2818361194608225C30FEF7DBF8054B75
:1057E0006362054BA362054BE362054B24622363AE
:1057F00010BD00BF596200087B620008B362000858
:10580000D7620008014900F0AFB800BF4557000853
:1058100070B54A1E682555430E4605F17401FEF722
:1058200011F9044640B10021C0E900160C30A06017
:1058300005F16802FEF7AEF8204670BD014800F0A1
:10584000B8B800BFC4080020014800F0B3B800BFDA
:10585000C4080020014800F0ACB800BFBF08002019
:10586000014800F0A7B800BFBF08002010B50446EB
:10587000FFF7F0FFA3691BB1BDE81040FFF7F0BFD1
:10588000C4E912332365134B134A1B68A262A34277
:1058900004BF0123A361204600F020F86060204689
:1058A00000F01CF8A060204600F018F80022E0602C
:1058B00004216068FFF782FFA06801220921FFF739
:1058C0007DFFE06802221221FFF778FF0123A36128
:1058D000D2E700BFB467000805580008F8B50746CE
:1058E000FFF7ACFF1E4B1E68B36913B93046FFF7D4
:1058F000BDFF4836D6E90134013B03D533680BB30D
:105900003668F7E7B4F90C50D5B9164BE36004F1EB
:105910005800656600F04CF8FFF796FFC4E90155A2
:10592000C4E904552560A5610822294604F15C00FC
:10593000FEF730F8C4E90D55C4E912552046F8BD0C
:105940006834D9E704213846FFF762FF0446306027
:105950000028D5D1FFF778FF0C233B60EEE700BFAE
:10596000B46700080100FFFF2DE9F84306468846AA
:1059700000F148040027D4E90195B9F1010905D5E2
:105980002468002CF7D13846BDE8F883AB89012B99
:1059900007D9B5F90E30013303D029463046C04748
:1059A00007436835E9E700000048704760010020C0
:1059B00070477047704770B50E46B1F90E10002958
:1059C00096B014461D4607DA00232B60B3891A06E9
:1059D00010D44FF480630EE06A4600F0A3FC002868
:1059E000F2DB019A02F47042A2F500535A425A4186
:1059F0002A60EEE740230020236016B070BD00004F
:105A00008B8973B59D0706460C4607D504F14703FD
:105A1000236023610123636102B070BD01AB6A465C
:105A2000FFF7C9FF009905463046FEF70BF848B965
:105A3000B4F90C309A05EFD423F0030343F00203CA
:105A4000A381E3E70D4BB362A389206043F0800399
:105A5000A381009B6361019B20615BB1B4F90E10CF
:105A6000304600F071FC28B1A38923F0030343F012
:105A70000103A381A0890543A581CDE7055800084E
:105A80000A44914200F1FF3300D1704710B511F87C
:105A9000014B03F8014F9142F9D110BD0148FFF7C6
:105AA00088BF00BFC00800200148FFF783BF00BFC8
:105AB000C008002070B5466A04460D4676B910202D
:105AC000FDF760FF0246606220B9184B1848662156
:105AD000FDF7FEFEC0E901660660C660666AF3680F
